:040000006F30807D60
:1000040000000000000000002E1300003013000068
:1000140000000000D63700000000000000000000CF
:10002400D6370000D63700000000000000000000B2
:10003400D637000000000000D637000000000000A2
:10004400D6370000D6370000D63700000000000085
:10005400D6370000D6370000D6370000D637000068
:10006400D6370000D6370000D6370000D637000058
:10007400D6370000D6370000241C00002C1E0000D8
:10008400D6370000E0290000D6370000CC25000058
:10009400D6370000D637000010260000D6370000FF
:1000A400D6370000D6370000D6370000D637000018
:1000B400D6370000D6370000D6370000D637000008
:1000C400D637000064080000D6370000D637000099
:1000D400D6370000D6370000D637000000000000F5
:1000E400000000000000000000000000000000000C
:0C00F40000000000000000000000000000
:10010000397101436EC619A0397141536AC866CA74
:1001100062CC5ECE19A0397101535AD056D252D456
:100120004ED64AD826DA22DC06DE330161408282CE
:1001300041114AC026C222C406C68282B24D410184
:10014000024D924C224CB24B4101024B924A224A40
:10015000B2494101024992442244B24041018280A5
:100160003D432A876373C3029377F700BDEFADE584
:10017000937606FF3D8ABA960CC34CC30CC74CC796
:100180004107E36BD7FE11E28280B306C3408A06C3
:100190009702000096966780A6002307B700A30683
:1001A000B7002306B700A305B7002305B700A304D3
:1001B000B7002304B700A303B7002303B700A302CB
:1001C000B7002302B700A301B7002301B700A300C3
:1001D000B7002300B700828093F5F50F9396850052
:1001E000D58D93960501D58D61B79396270097021B
:1001F000000096968682E78086FA9680C1171D8F4A
:100200003E96E374C3F8A5B793171500898BAE9794
:10021000239AF180B70700209387C7019837937618
:1002200015008CA7719B558F98B705810947938757
:100230008180637AA700EFF2BFEF31470D4598A3A5
:10024000EF20200B01BF114798A382800547238C24
:10025000E184A38BA1848280894763EFA700B7075D
:1002600000200A059387C701AA9788339C2322059B
:10027000137505303E9582801305C0128280B777D2
:1002800002409A23136727009AA39A2342074183C7
:10029000759B420741839AA3962319672107558FBF
:1002A0009AA313874191420741839AABD8231377CE
:1002B000E70FD8A313077007BAA3D8231367270043
:1002C000D8A3B7E700E03707020023A2E710828037
:1002D0001387818F1C2F93F7F7FC93E707031CAF5D
:1002E000B77702401307400ADAA7FAA782809387FC
:1002F000818F982F1377F7FC98AFB77702401307D9
:10030000200ADAA7FAA78280EFF29FE2EF20600CC2
:100310001384818F11E9E13F1E2C7D776D17F98FD2
:10032000232004001EAC3DB5930700F85CA81E2CEA
:100330007D77130707FBF98F93E787041EAC23042F
:1003400004002305040023170400231904002320BC
:100350000400BD3F2D37C1BFEFF29FDD4111B167F2
:1003600005443EC24C0091473715014022C43EC6A9
:10037000EF30C04F370701401C4F714693E70730FD
:100380001CCFB777024021479AA3715798B7814590
:100390001385818FF1331385818D114693854180BB
:1003A00000A10505EF30D0558537D13D41015DB342
:1003B000EFF21FD883D7019137740240898B63868F
:1003C00007145E24898BC1CB83C7018405476390E2
:1003D000E7045E240945C207C18393F7E7F1C2072A
:1003E000C1835EA45E2493E707045EA4EF30103E51
:1003F0004A245E240589C207C18393F7E7F1C20747
:10040000C1835EA45E2493E7070A5EA4A1B30947F3
:100410006391E7047E240945C207C18393F7E7F19E
:10042000C207C1837EA47E2493E707047EA4EF3035
:10043000F0397A247E24C207C18393F7E7F1C2071B
:10044000C1837EA47E2493E7070A7EA493771700D6
:10045000DDE7014565BF5E240945C207C18393F707
:10046000E7F1C207C1835EA45E2493E707045EA49C
:10047000EF30D03546245E2409458588C207C18304
:1004800093F7E7F1C207C1835EA45E2493E7070AEE
:100490005EA47E24C207C18393F7E7F1C207C1833C
:1004A0007EA47E2493E707047EA4EF3030327E24BE
:1004B0007A24858B420741831377E7F14207418312
:1004C0007AA47A241367070A7AA4371701401847D9
:1004D0009316170163D4060093E404043717014010
:1004E00018479316070163D4060093E7070437778C
:1004F00002401A23118B11C793F70704B9FB094572
:1005000031B713C50404198111B75E240945C20728
:10051000C18393F7E7F1C207C1835EA45E2493E72A
:1005200007045EA4EF30902A46245E24094585889E
:10053000C207C18393F7E7F1C207C1835EA45E24BB
:1005400093E7070A5EA4EF3070285E24858B99C379
:1005500093E48400B71701409C4713971701635435
:10056000070093E40404377902408357E900094502
:10057000C207C18393F7E7F1C207C1832317F900CC
:100580008357E90093E707042317F900EF3010249D
:100590000354E9008357E90009450588C207C18370
:1005A00093F7E7F1C207C1832317F9008357E900E6
:1005B00093E7070A2317F900EF3050218357E9002A
:1005C000858B99C313648400B71701409C47139728
:1005D00007016354070013640404B7770240DE2761
:1005E000898B89CB058813F51400E30104E201D956
:1005F000054529BD93F7840421470145639BE70026
:1006000093770404054591E7137594007D15133520
:10061000150013748404A147E31AF4DEE31B05E21A
:1006200093F7940005476393E700094593F40404A6
:10063000E38E04DCE9B5EFF2BFAF9384818F9E2C8B
:100640004111898BADC3AD3309C523850400410138
:1006500011B6BC241147850793F7F70F6364F700C1
:10066000BCA4F5B79E2C2385040013F7D7FF9AACE2
:10067000918BF1FF054480C0EF20604A0145EF10E7
:10068000906523950184938781859823E31187FCE6
:100690002380070083C7718581C7EF10D05745BFFE
:1006A000EF10D0586DB729331384818FAA8509C9FB
:1006B0003C241147850793F7F70F6365F700BE8564
:1006C0002CA471B71E2C2305040093E727001EAC51
:1006D000918BB5FF2AC6EF10D04FB24539ED377771
:1006E00002405E27898B81E77E27898B8DCF8547E6
:1006F00013870184B7760240639AF5029E22C207EF
:10070000C183ED9BC207C1839EA20CA389472EC65D
:100710001CC0EF10104CB2452A8637550000130557
:100720004569EF3010292317040015B79E2293E77F
:1007300047009EA289471CA3D1BF85473777024057
:10074000639AF5021E23C207C183ED9BC207C183D2
:100750001EA3377702405E27898B81E77E27898B2E
:1007600091CF3755000089471305C56A1CC0EF308B
:10077000502455BF1E2393E74700D9BF37550000CB
:10078000AD471305056C1CC0EF30B0229387A184E0
:1007900096230567130777BBE377D7F80567130739
:1007A000E7BA9AA349B7B77702409A23118B51CF82
:1007B000FA2713670701FAA7B77702401307F00477
:1007C000C205BAA3C1818EAB4206D4B34182F2A363
:1007D000D82313671700D8A39837A3840700D8231A
:1007E00013672700D8A32DC1983762076187E35D9F
:1007F00007FE98371367070898B79A23118B39CBF0
:10080000FA27420741833D9B42074183FAA7B77706
:1008100002409A23136727009AA39A234207418331
:10082000759B420741839AA3D8231377E70FD8A378
:1008300013874191420741839AAB13077007BAA30C
:10084000D82313672700D8A38280DA27136707010C
:10085000DAA79DB7DA27420741833D9B42074183D0
:10086000DAA775B7B77702409837411122C61377D8
:1008700007022DCB983785461367070298B798373C
:100880000D8B6311D706B6271546637DD604BE27A8
:100890009946138441916396F6001C20FD8B638377
:1008A000E7047945EF308072EF10B03293071004FF
:1008B00019C1930710069386418403A701919CA256
:1008C0001C301583058BB98BD98F9CB237770240CA
:1008D0001E23A1660946D58F1EA3814693854184B8
:1008E0000145D135B7770240983762076187635079
:1008F0000704DA27B7060200420741833D9B4207FF
:100900004183DAA7FA27420741833D9B420741838F
:10091000FAA737E700E02322D7181387818F162F15
:1009200093E6160016AF98371367070898B7B7779E
:10093000024098371377070401CF983713670704ED
:1009400098B7D932375500001305057CEF30B01742
:100950003244410173002030EFF20FFB1387819383
:10096000143393D725009207D58F1CB3814793F694
:10097000F70F05076390D5088905114993F4F50F22
:10098000377A0240994A7D191379F90F630E0904E9
:10099000B7E700E03707020023A2E7188146268662
:1009A00093858193054501351304A00F854B7D1474
:1009B0001374F40F69D883479A0093F70702A9C309
:1009C00083479A0093E70702A304FA008357AA001B
:1009D0006398FA0283C74191FD8B639377039387F2
:1009E000818F9827090798A7EFF07F8913351900A1
:1009F0006FF00FF5B306F5009422850714B385BF99
:100A00000D45EF30A05C65B79386818F962E238CC1
:100A1000B19213F68600938781931387818F01C665
:100A200093E505028CA303C8070013F6060493653B
:100A3000080419C29365080818278CA3C18A398B4A
:100A400081EA98B309C59833136707F898B3828091
:100A500013671700FDB793F7350091EBF146854713
:100A600063E8B600EFF2CFECC53D6FF0AFEE85471F
:100A70003E858280EFF2CFEB938741919C33938840
:100A80004191014713D8470013787800938541912D
:100A9000130E000C9376F70F3A851316270063FAAE
:100AA000060103C35800050791081373030CE313F1
:100AB000C3FFA380D1841307E003D8B193F7F7F8FD
:100AC00013174500D98F1385818D9CB114A1890519
:100AD0000505EF30E0626FF0EFE77D150A05AA9596
:100AE0009C31B821A2074207BA979821BA9719C634
:100AF00013F7F73FA9453307B7021AA289CAA9839A
:100B000093F7F73F13072003B387E7029EA2828083
:100B1000EFF20FE283C71184411163E4A700AA84B6
:100B200001ED3754000013054465EF30C07913051B
:100B3000401FEF30004DC5BF13844191931725002E
:100B4000F517130924009385818DBE9511464A85BA
:100B5000EF30005B9306E1007000CA850545B53FA4
:100B600030872C863755000013058566EF306064AA
:100B700089450145513D38203C30920493162700A9
:100B80008D8BD58F93F7F70F3CB08A071983B18B04
:100B9000D98F93E4340091454A8544B05CA06D3B05
:100BA000194711C17D479387818F98C39A2F856616
:100BB00023970700558F9AAF41016FF0AFD9EFF23D
:100BC0008FD51387818F362B83C77184411113848E
:100BD000818FBE9636AB18439306000263E3E602AC
:100BE00095660A07938686583697184302871387B7
:100BF000A18416230566130676BB6364D600B697F8
:100C00001EA31E2C858B6381072603C94191230BEC
:100C1000040045471379F9019307F9FF93F7F70F9C
:100C200093844191636BF74415678A071307C76084
:100C3000BA979C438287375500001305456DA38CF6
:100C40000184EF304068EFF02FEC65BF7A24BA974B
:100C5000C207C1837EA41307F07CE374F7FA5C3803
:100C60001547850793F7F70F5CB8E37EF7FCA30AF7
:100C700004002320040071B77A24BA97C207C18305
:100C80007EA41307301FE37EF7F61E2CED9B1EACEF
:100C9000FD471CC019A8B5450145BD338145014537
:100CA00065393335A000160508C02317040091BF2D
:100CB0001E2C9306900A014693E74700814505459F
:100CC0001EACD534EFF0AFDB23200400F9BF138650
:100CD000A1841A228566938676BB63ECE600BA97F8
:100CE000C207C1831EA20545E3FDF6F0EF10A07E0A
:100CF00009BF7A24BA97C207C1837EA41307F009FB
:100D0000E371F7F01E2C23170400ED9B1EACB147D6
:100D10001CC0C5BD7A24BA97C207C1837EA413073D
:100D2000F009E370F7EE85450145F93903C7818085
:100D3000B14737050020A1456303F700914513052E
:100D4000C50119393DF137550000B5471305056E4A
:100D50001CC0EF30405791BF7A24BA97C207C183B5
:100D60007EA47547E37FF7E89307000255B77A241E
:100D7000BA97C207C1837EA40947E374F7E88D459B
:100D80000145593181450145C13EE31305F0375511
:100D9000000013050570EF300053C9471CC023172E
:100DA000040003C5818499B77A24BA977EA4EF1012
:100DB000402515E99945893981450145713EE31979
:100DC00005EC03C5618583D5418583C791850546BB
:100DD00091E30146EF1090543755000013058570DC
:100DE000EF30604ED5B57A24856793878738E3FA6C
:100DF000E7E03755000013054571EF30C04C95BD55
:100E00001545EF3000201E2C938A2400ED9B1EAC6C
:100E1000375B00008531138A118483470A0063F829
:100E200027053755000013054566EF30C0490345D7
:100E30000A008947938921851389018563FAA704EC
:100E40000D45F9318D472380F900BC34B824A20741
:100E500093F70730BA972310F900EFF04FC21E2C1A
:100E600023190400F99B1EAC41016FF00FAE4A85B7
:100E70009306E1007000D6858D3134873086CA85AF
:100E80001305CB720509EF30C0321379F90F61B742
:100E900041318D472380F90083470A00FD178A07F7
:100EA000BE94BC30B820A20793F7071065B718406E
:100EB0002317040099476315F700A5471CC071BFAD
:100EC000EF1020517DD951BFEC203755000013059C
:100ED0004575EF30002E0945EF30A012CC30375564
:100EE00000001305C57691859D890CA8EF30602C14
:100EF000142819479387F6FF93F7F70F6375F700E8
:100F00009307000265BFF020130750059387818483
:100F10006316E608F8309305A00A6311B7088C241D
:100F2000639EC5069034631BE60683C58180314607
:100F30001387C1846390C506230007000D4798A35B
:100F40008546A38CD18488239306E10070009385A5
:100F50002400238BA18451362C86A94737550000E5
:100F6000B3D7F50213058578239AF184EF30602416
:100F70009C201A2C2317040093F7070C938707F87B
:100F800093B717009A071377F7FBD98F1EACBD47AD
:100F90001CC0E1B5054610A394A35DB794A365B743
:100FA0009384218583D501858820EF101035982002
:100FB0008D476315F7000D45EF10A033375500003E
:100FC0001305C579EF302030A947CDBD0545EF3079
:100FD0004003914501450D3C37050020914513051F
:100FE0008521953C9DBD0545EF30A0018D4501450E
:100FF000213C81450145F5B70545EF308000854529
:101000000545193437050020F14513050500D1BF0A
:101010000545EF20107F89450545FD32A145138523
:10102000C180C1B70545EF20D07D9145C9B7BC202F
:1010300093F7070CE39307E20545EF20907CBD454D
:101040000145D932BC301A2C914593F70706B337C6
:10105000F0009E071377F7F7D98F1EACBC201385DD
:10106000240093E707F8BCA0ADBF0545EF207079D9
:1010700013852400EF108076CDB33755000013059B
:10108000857AEF304024D1BBEFF2EF881389D18409
:10109000834409008547638EF40299C88947138405
:1010A000D184638FF4068D476388F4086FF0EF896D
:1010B00003C49185E31CF4FE375500001305057D3C
:1010C000EF3060201307007D230089002397E1841F
:1010D000F1BF9389E1841385E184EF10702479D501
:1010E000375500001305457EEF30E01D8947C145A7
:1010F00001452300F90023AE9194EFF0FF90914554
:101100001385C195EFF03F950145EF10205603C5BB
:10111000C184EF10E0649307401F2390F90079B772
:101120001385E184EF10D01F01C98D471CA0EF206B
:10113000803619C9EF10E05683C79185A5FB2300BF
:101140000400EF1020549DB7EF108059F5B7EFE27F
:101150003FFE8D47C145014523AEF194EFF0DF8A94
:1011600091451385C195EFF01F8F6FE0BFFEEFE251
:101170003FFC8947C145014523AEF194EFF0DF887C
:1011800091451385C195EFF01F8D6FE0BFFCEFE235
:101190003FFA9147C145014523AEF194EFF0DF8658
:1011A00091451385C195EFF01F8B6FE0BFFAEFE219
:1011B0009FF6AA892E84B284368999E537550000B6
:1011C0001305857FEF20F07E8145130640052285BB
:1011D000EFE01FF993074400014793050002B3862F
:1011E000E9000385060085073386E540A38FA7FE47
:1011F00029E53387C7008507639EE70285679387E4
:1012000097905EB0A5472304F40204C0230324038F
:101210008294A303A4023765000023070404130586
:101220000581EF2010799387C185984380C338C822
:101230006FE0BFF1A38F07FE7DBF0507E311B7FA8B
:1012400075BFEFE2FFEE41112A8419E9375500001E
:101250001305857F32C62EC4EF20B0753246A245F5
:101260009D47639CF50050D410D850D810DC50DC5A
:1012700030C070C041016FE0FFEDA1058A052E94DA
:1012800050C4CDBFEFE2DFEA1C412A848297830776
:101290007402AA84630BF5028347E4041307100366
:1012A000850793F7F70F2307F4046370F7028307AA
:1012B0006402A303A40223070404631EF5025C5422
:1012C000230204029DC72285829703074402A54793
:1012D0006311F70283076402639DF4008347D4041B
:1012E00013071003850793F7F70F636EF700A30644
:1012F000F4046FE03FE683074402E1FB85472302E5
:10130000F4021C58C1B75C54A3060404230204026F
:10131000EDD322858297F1BFEFE29FE103A4C1855F
:1013200019E06FE03FE32285B13F2048D5BF01A01F
:1013300001A0EFE2FFDF376500001305C58BEF204A
:10134000907883A701821D47636BF70019678A07AE
:1013500013078782BA979C438287EF20E0086FE0EB
:101360007FDF0529EDBFE52CDDBFEFE27FDC3765D0
:1013700000001305458AEF20107583A701822147DD
:10138000636BF70019678A0713078784BA979C4332
:101390008287EF20800B6FE0FFDBEF20000BD12670
:1013A000DDBFE12EEF20A03CFDB7652EF926E5B7A5
:1013B000EFE21FD8EF208033376500001305058F5B
:1013C000EF2070706FE01FD9EFE29FD603A5018B6D
:1013D0009387018BCC43EF20A02B376500001305CA
:1013E000458DEF20506E6FE0FFD6EFE27FD403A56E
:1013F000818B9387818BCC43EF2080293765000058
:1014000013050592EF20306C6FE0DFD4EFE25FD27E
:10141000EF20003A3765000013058590EF20B06A91
:101420006FE05FD3EFE2DFD037150140854513054C
:1014300005C0EF20805A6FE0FFD1EFE27FCF371574
:101440000140A145130505C0EF2020596FE09FD052
:10145000EFE21FCE854537150140EF2000586FE0C1
:101460007FCFEFE2FFCC3715014093050020130535
:1014700005C0EF2080566FE0FFCDEFE2DFC94111DC
:10148000B71401400544A147130980044C0013859B
:1014900004C03EC24AC622C4EF20403D4C00138522
:1014A00004C022C24AC622C4EF20403C11494C006D
:1014B0003715014022C24AC622C4EF20203B9307C1
:1014C00000204C00138504C03EC24AC622C4EF204F
:1014D000E03937160000376500009385019C81468E
:1014E000130646421305C586D93137160000376505
:1014F00000009385C19681461306A6431305858790
:10150000EFF0FFCA3716000037650000938541A150
:1015100081461306064513054588EFF05FC9371667
:101520000000376500008146938581A61306264694
:1015300013054589EFF0BFC7371600001385019CDE
:10154000130626338145F539371600001385C196F9
:101550001306A6368145F53137160000138541A1E3
:101560001306063B8545F13937160000138541A166
:101570001306863C8145F13137160000138581A69C
:101580001306C64085457539371600001306A63E7A
:101590008145138581A6EFF0DFCA41016FE0FFBAF4
:1015A000EFE21FB937150140014693050008130506
:1015B00005C0EF2020436FE0FFB9EFE27FB737159A
:1015C0000140054693050008130505C0EF20804142
:1015D0006FE05FB8EFE2DFB537150140054689459A
:1015E000130505C0EF2000406FE0DFB6EFE25FB407
:1015F00037150140054693050004130505C0EF208B
:10160000603E6FE03FB5EFE2BFB2371501400146E3
:1016100093050004130505C0EF20C03C6FE09FB3A5
:1016200083C7418689EFEFE2BFB03715014001461D
:101630008945130505C0EF20E03A6FE0BFB1828015
:101640009387018694432947637AD700EFE25FAE20
:1016500023A00700EF1010266FE0DFAF8280EFE2DB
:101660003FAD138541EFEF10901F13854149EF10F7
:10167000101F6FE03FAEEFE2BFABB7640000138610
:1016800004A18D451385C1ABEF1070111385C1AB5B
:10169000EF10F01C138604A18D451385411CEF103B
:1016A00010101385411CEF10901B6FE0BFAAEFE2F2
:1016B0003FA8B7640000138644949305F00F138588
:1016C000C1ABEF10D00D1385C1ABEF1050191386CD
:1016D00044949305F00F1385411CEF10500C1385B3
:1016E000411CEF10D0176FE0FFA6EFE27FA4B764B4
:1016F00000001386C4A29305F00F138541C2EF10BA
:10170000100A138541C2EF1090151386C4A29305E9
:10171000F00F1385C105EF1090081385C105EF1078
:1017200010146FE03FA3EFE2BFA0B7640000138680
:1017300044A29305F00F1385C1ABEF10500613853B
:10174000C1ABEF10D011138644A29305F00F13859F
:10175000411CEF10D0041385411CEF1050106FE0B6
:101760007F9FEFE2FF9C138541C2EF10D0111385DC
:10177000C1ABEF1050116FE0FF9DEFE27F9B13852F
:10178000C1D8EF10D00D1385C132EF10500D6FE0AE
:101790007F9CEFE2FF991385C1D8EF10500C6FE0EA
:1017A0007F9BEFE2FF981385C15FEF10D00D0547D7
:1017B0002382E1866FE01F9AEFE29F9723820186E2
:1017C000EF10704D09C51385C15FEF1050096FE030
:1017D0007F98EFE25F9437640000130684971385C7
:1017E000C1AB9305F00FEF10807B13068497138530
:1017F000411C9305F00FEF10807A13068497930530
:10180000F00F1385C15FEF1080791385411CEF1035
:1018100010051385C15FEF1090041385C1ABEF1065
:1018200010046FE09F92EFE2BF901385411CEF1010
:101830009005376600001306C6A19305F00F1385C7
:10184000C15FEF10C0751385C15FEF1050016FE0ED
:101850007F90EFE2FF8D1385C15FEF10D0026FE044
:101860007F8FEFE2FF8C1385411CEF10D0016FE0FA
:101870007F8EEFE2FF8B1385C105EF10D0006FE084
:101880007F8DEFE25F89411185452145EF20004DB5
:101890003714014041498544930700044C00130567
:1018A00004C03EC24AC626C4EF10507C89474C0093
:1018B000130504C03EC24AC626C4EF10307B130590
:1018C00004C0054693050004EF20C011054613052A
:1018D00004C08945EF200011930700084C00130550
:1018E00004C03EC24AC626C4EF105078130504C097
:1018F000014693050008EF20E00E37190000B714E9
:10190000000081461306C95E938564601385411CFF
:10191000EF104066B76900001386C9931385411C18
:101920009305F00FEF10A06781461306C95E9385FB
:1019300064601385C10537640000EF10A0631306CF
:1019400004A11385C1059305F00FEF104065814692
:101950001306C95E938564601385C132EF10806100
:101960001386C9931385C1328545EF1040638146C4
:101970001306C95E9385646013854149EF10805F4B
:10198000130604A1138541498D45EF1040613716B8
:101990000000B715000081461385C15F1306465D40
:1019A00093850562EF10005D130604A11385C15FE6
:1019B0008D45EF10C05E37190000B7140000814656
:1019C0001306095A9385A45B1385C1ABEF10805AA7
:1019D000130604A11385C1AB9305F00FEF10205C33
:1019E00081461306095A9385A45B138541C2EF1003
:1019F0006058130604A1138541C29305F00FEF1040
:101A0000005A81461306095A9385A45B1385C1D8F1
:101A1000EF1040561386C9931385C1D88545EF1042
:101A2000005881461306095A9385A45B138541EF3C
:101A3000EF104054130604A18D45138541EFEF10BC
:101A4000005641016FE06FF0EFE28FEE3765220044
:101A500085451305F5A1EF2060306FE0AFEFEFE2B1
:101A60002FED2A8415654111130555552EC6EF201B
:101A700020221375F40FEF202022B2452E85EF208F
:101A80002022EF206022EF20002341016FE08FEC45
:101A9000EFE20FEA0545EF20E022EF10806FEF2024
:101AA00080505D3737150E00EF200059EF005019B8
:101AB000EF105044EFF07F9CEFF0BFDCEF101028E8
:101AC00083A5818137650000130505A4EF20606EB2
:101AD000EF103059AA8537650000130505A5EF20E2
:101AE000406D37650000130505A6EF20C07DEFE0CF
:101AF000BF869305F0021305703EEF00500093057A
:101B0000F0021305703EEF00B005516589451305DD
:101B100005882D28B921EF0050618565938505FA68
:101B20001545EFF0DFF3EF202018EF009023EF00D2
:101B3000D026EF00A071EF10C006EF00B02FEFF03D
:101B4000AFFDEFF0FFAFEF10501BF1BFEFE2AFDCE6
:101B50000111AA892E894145854502C202C402C6E7
:101B600002C802CA02CC02CEEF20401F85453705CD
:101B70002000EF20802085450545EF20201E3705F9
:101B80003008854513050540EF101067370502083A
:101B900085455105EF105066B7070400E144054440
:101BA0004C00371501403EC226C622C4EF10104C2F
:101BB000B70708004C00371501403EC226C622C4B4
:101BC000EF10D04AB7070040375400403ECA930791
:101BD0000040FC850C08916713050440FC864EC844
:101BE000231C2101EF10506B854513050440EF10B5
:101BF000907705616FE06FD593874176238007006A
:101C0000ACB388B30547D8A390C723880700828068
:101C100093874176294798A3A8A3CCA3D0C723884C
:101C200007008280411126C44AC2B75400403709D8
:101C30000002930519001385044022C6EF2080029C
:101C40001384417621CD1C2093F7F70F89C71C2000
:101C500029476316F7021C203755004001468507C7
:101C600093F7F70F1CA09305400C13050540EF10E8
:101C7000D0773244A24412494101730020301C2025
:101C80000D47E318F7FE1C2005469305400C850719
:101C900093F7F70F1CA013850440D1BF93052900CB
:101CA00013850440EF10107C39CD1C2005476314C8
:101CB000F70089471CA01C2011476316F7029547BF
:101CC0001CA03C3005476310F702B75400408565FF
:101CD0009385058013850440EF1090738545138527
:101CE0000440EF10706B1C202D476314F700B147C0
:101CF0001CA037550040E14513050540A302040030
:101D0000EF10D06FBDB7370900069305090813859A
:101D10000440EF10307551C11C200947631FF702C2
:101D20005C3093F7F70F81EF0C3013850440EF1010
:101D3000106B5C30850793F7F70F5CB01DBF8545CE
:101D400013850440EF10B0638D479305F00F1385A2
:101D500004401CA0EF10B06829BF1C203147631A53
:101D6000F7002C2013850440EF107067B5471CA0C6
:101D700009B71C203547E31EF7EE5C30582063F7A7
:101D8000E7005C445830BA978C2345B785451385E6
:101D90000440EF107060FD574DBF93050904138593
:101DA0000440EF10306C2DC11C201547E313F7ECF5
:101DB0005C303830E3FFE7EA032984005C301385A8
:101DC00004403E99EF10F0612300A9005C308507C4
:101DD00093F7F70F5CB058303C30FD17639EE70077
:101DE00085659385058013850440EF1070628545F5
:101DF00013850440EF10505A58303C3093F7F70FDA
:101E0000E399E7E6FD57A5B7376500001305C5ABB5
:101E1000EF20604B83D5444103D6844114203765BD
:101E20000000130505ADEF20C038A1B5411122C651
:101E300026C437540040B7040001938504401305BD
:101E40000440EF10306209CD13050440938504402F
:101E5000EF10506337650000130505ABEF20A04677
:101E60003244A244410173002030EFE26FAC93870B
:101E700041769C2B2D4793F7F70F636FF706196791
:101E80008A07130787A6BA979C43138441768287F3
:101E9000B7540040B705020013850440EF10705995
:101EA00001ED89478545138504401CA8EF10304D8E
:101EB0009307401F3EA889A08567938787383EA86F
:101EC00085471CA815A83E2803C771846379F702CB
:101ED0003E28998FC207C1833EA83E28C207C1830E
:101EE00099E3A9471CA8B7540040B7050200138521
:101EF0000440EF10105455D501456FE0AFA52319EC
:101F00000400E1BF3E2803C771846374F7023E28D2
:101F1000998FC207C1833EA83E28C207C18399E3B7
:101F2000AD471CA81C201307F00FE317F7FC8D47E3
:101F300049BF23190400CDB737650000130585AEEE
:101F4000EF206038130540064DBF0C2037650000B8
:101F50001305C5AFEF20E0251305500679BF0545F1
:101F600069BF93878177239007002392070023940A
:101F70000700238F07008280EFE28F9B856793879E
:101F80007738AE841384817763E1A704AA85376527
:101F90000000130505B6EF20C021856793878738B9
:101FA0005EA0954793952400B3C5F5023765000000
:101FB000130545B96CA093F5F50FEF20801F1C3079
:101FC00099E38D471CB06FE0EF980D69130909EE96
:101FD000637CA900AA8537650000130585B7EF204B
:101FE000401D2312240175BF4AA065BF1387817766
:101FF00018339387817719E3054798B32392070035
:10200000828003C591778280EFE2EF901389817718
:10201000834709008549138481776389370389CB16
:102020000947638BE7040D47638DE7086FE0EF9185
:10203000371501400546914513050580EF10901AAC
:102040008D472311F90023003901CDB73E2003C786
:102050007184636DF7002311040089471306A400FF
:10206000A94505451CA0EFF03FB9C9B7998FC20734
:10207000C1833EA0C5FFD5B7EFF03FDF6311350741
:10208000938481771309A400B7690000AC241385F9
:1020900089B48504EF20E011E39A24FF375500004E
:1020A00013054566EF2020228D471CA07C241306D3
:1020B0004401854593E7470015455CA8EFF05FB5FF
:1020C000B5B7EFF09FDA631C3501376500001305E3
:1020D00005B5EF20401F91472300F90081BF39D596
:1020E0002300A900A1B7EFE2AF84938781779C33E7
:1020F0001547FD1793F7F70F6369F70419678A0708
:10210000130787A9BA979C431384817782877C241D
:1021100013064401854593E7470015455CA8EFF099
:102120003FAF89471CB015A0EFF03FD48547631936
:10213000F50837650000130505B5EF20C018A300AA
:10214000040023120400231404006FE0AF805E201B
:102150007D77130747D5BA977820C207C18358A85F
:102160003834D146130644011367270058B81307C3
:10217000000533D7E70291450545B3D7D70278A8C4
:102180005834019B136787018D8BBA977CB8EFF0A9
:102190003FA85A202393E186914769B7EFF0FFCC1F
:1021A0008547631FF50083D56186376500001305F9
:1021B000C5B0EF20000095471CB0D1473EA071B7D5
:1021C00049D508B059B73E2003C771846362F7024E
:1021D0002311040099471CB07C2413064401854553
:1021E000E59B93E7270015455CA8EFF07FA2B1BF00
:1021F000998FC207C1833EA0A9FBE9BFEFF0FFC6DC
:102200008547AA846311F504138961868355090003
:10221000376500001305C5B2EF10B0790357090008
:102220005E201AA4630EF70085C38D471CB03715D6
:1022300001400546A14513050580EF10A07A31B78E
:10224000A3000400EDB765D504B0D5B7EFD25FEEBB
:102250009387817798238D4663E8E600FC2F99C326
:10226000EFF09FDA6FD01FEF9147E31DF7FEEFF01D
:102270009FE7CDBFEFD2DFEB13878177782F411136
:1022800002C402C61384817725E3B7540040854514
:1022900013850440EF10F0119307E0110549280061
:1022A0007C84230501004AC6EF1030229307F01109
:1022B00028007C84230521014AC6EF101021054621
:1022C0009305004013850440EF1050100546930518
:1022D000002013850440EF10700F05469305001091
:1022E00013850440EF10900E85477CAC41016FD000
:1022F0007FE62385A186828003C5A1868280EFD2F6
:102300003FE3011137340140E884EC82130504C037
:102310004C08231B0100231D0100231E010002C6DF
:1023200002C8EF1090328545130504C0EF10703BD2
:10233000930730127C8685475C87680085473EC8D6
:10234000EF10B0180546130504C08545EF10D036D0
:102350008545130504C0EF10B03405616FD09FDFD1
:10236000EFD21FDD01112E84AA848545054502CADE
:1023700002CC231E010002C602C8EF1010204C0838
:1023800037050040E484E082231D0100231B010087
:10239000230E0100EF10702B854537050040EF102C
:1023A0005034930760127C8685475C8768008547B8
:1023B0003EC8EF1090110546854537050040EF10E7
:1023C000B02F854537050040EF10902D05616FD087
:1023D0007FD803C581868280EFD29FD583C781864F
:1023E0008DE3371501400546854513050580EF103F
:1023F000605F0546A14537150140EF10A05E6FD024
:102400007FD5371501400146854513050580EF103E
:10241000605D0146C5B7EFD2BFD105472384E18691
:10242000EFF09FFBEFD05FF36FD0DFD2EFD25FD042
:1024300023840186EFF05FFAEFD01FF26FD09FD1B7
:10244000EFD27FCD41118545114502C202C402C6BB
:10245000EF10D01085454145EF1050103714014062
:10246000854441494C001305048026C24AC626C44F
:10247000EF10C03FA1494C00371501404EC24AC67B
:1024800026C4EF10A03E91474C00130504803EC2C5
:102490004AC626C4EF10803D4C00130504804EC28E
:1024A0004AC626C4EF10803CEFF01FF313050480EA
:1024B00001469145EF100053130504C001468545C0
:1024C000EF1040520146A14513050480EF108051E2
:1024D00041016FD09FC7EFD2BFC583C78186ADCF03
:1024E00015E137150140130505800146A145EF10A0
:1024F000604FEFF0BFAF37650000130545BBEF102D
:10250000905C35A885476310F5020145EFD0DFD414
:10251000AA85056513058538EFF01FA6376500000D
:10252000130505BCE9BF8947631DF5000545EFD0DC
:10253000BFD2AA85096513058532EFF0FFA36FD0DE
:102540007FC18D47E31DF5FE0945EFD0FFD0AA8579
:102550000D65130505EED5B737650000130505BDFC
:1025600079BFEFD2FFBC37340140130504C00146E8
:102570008545EF10701483C6918683C761848545B5
:10258000B387F640A383F184130504C00546238373
:10259000D184EF1070126FD0FFBBEFD27FB91387D9
:1025A000818F83C671841C37B69793F7F70F9146D6
:1025B00063E9F6001CB7EFE08FE0EFE0FFAC6FD00F
:1025C0007FB9A3040700EFE00F87F5B7411122C6DA
:1025D000373401408545130504C0EF10100F0DC5B9
:1025E0009387918698238545130504C0050798A312
:1025F00083A70186850723A0F18683A741898507E4
:1026000023AAF188EF10F00D32444101730020300D
:10261000854537050040EF10500B19C99387018796
:102620009843854537050040050798C3EF10700BA8
:102630007300203093870187944337F736001307E0
:10264000F7E76374D7021387C18623A007001C43F2
:1026500085071CC313078007B3F7E70299E7EFD29A
:102660003FADEF00B0636FD0FFAE8280854711C1F0
:102670008D47238DF18682803335A0000905238D97
:10268000A1868280238D0186A38B0186A38A018681
:10269000A38C0186238A0186238C0186238B0186E5
:1026A0008280EFD2FFA837650000130505C7EF1041
:1026B000904183C7A18705476398E700238C018673
:1026C000EFE0FFAA6FD01FA909476394E7007529BF
:1026D000D5BF376500001305C5C8EF10D03EDDB784
:1026E000EFD21FA537650000130545C3EF10B03DBD
:1026F00083C7A18705476398E700238B0186EFE036
:102700001FA56FD03FA509476394E7005921D5BFA6
:1027100037650000130505C5EF10F03ADDB7EFD2BD
:102720003FA137650000130585BFEF10D03983C77F
:10273000A1870547639AE700238A0186238C0186D7
:10274000EFE0FFA46FD01FA109476394E700B12118
:10275000D5BF37650000130545C1EF10D036DDB792
:10276000A38CA1868280238AA1868280238CA18665
:102770008280238BA1868280A38BA186A38AB186C7
:1027800082808280EFD23F99938991871389418714
:1027900083C7090083450900138481878A058E0752
:1027A000AE970C20938461878605AE978C203765A1
:1027B00000001305C5CABE95EF10B01F03C5090080
:1027C000834709000E058A073E959C203E951C20F4
:1027D00086073E951375F50F6FD03F972C21930711
:1027E000A00A30316396F506930750056312F6068A
:1027F000182185476319F7021C318946638FD7007A
:1028000063E4F60081CB8280F11793F7F70F63F949
:10281000F6008280238BE1868280238CE186828091
:10282000238AE18682808947631CF7001C3113D715
:102830001740058BA38BE186858BA38AF186828066
:102840008D476311F7021C3191EF238A0186828044
:10285000EFD21F8E37650000130505BEEF1070150F
:102860006FD05F8F8280EFD2BF8C797137140140B7
:102870008544C1470C08130504803EC83ECC26CAD7
:1028800002CE02D002D202D42316010202C402C632
:10289000EF00D07D9307000261490C081305048006
:1028A0003EC84ACC26CAEF00707C930700043EC89D
:1028B0000C089147130504803ECCEF00307B930752
:1028C00000080C08130504803EC84ACC26CAEF0055
:1028D000F079854537350140EF102053B7070401E3
:1028E0003ECE930700036C083ED4373501409D4728
:1028F0002316F10202D002D2EF10004A9307100211
:102900007C84280089475C8526C6EF10003C8545FD
:1029100037350140EF10604B0546C1451305048073
:10292000EF10400C45616FD0FF82EFD27F80238390
:1029300001881307C05DA38101882394E188EFF02B
:102940009FF26FD03F81EFD2AFFEAA8437150140CE
:102950002E840146C14513050580EF10A00893871A
:10296000417A7D5784A398B3B8A323810188238239
:102970000188A382818805469305100737350140F9
:10298000A38D0186EF1000466FD0CFFCEFD24FFA37
:102990002A893715014041113284AE840146C14570
:1029A0001305058036C6EF10E0039387417AB246DF
:1029B0002380270184B3A0A3A0B305472381E18826
:1029C00023820188A382D1880546930510073735F5
:1029D0000140A38D0186EF10E04041016FD08FF7D9
:1029E000411122C683C721881384218893F7D70F0A
:1029F000A5E39305000637350140EF10804229C951
:102A000037350140EF1020409386B187902293879D
:102A10008179B2971307160088A31C201377F70F4C
:102A200098A2ADEB83C751886397E70801469305E9
:102A3000000637350140EF10E03A371501400546F2
:102A4000C14513050580EF00F0790547238EE18627
:102A50009305100737350140EF10A03C05C91387D7
:102A60004188142383C75188639DD7040146930589
:102A7000100737350140EF10E03605469305000694
:102A800037350140EF10003689471CA03244410120
:102A90007300203009476390E70203C7418883C76A
:102AA0005188631AF7000547238EE1861307400615
:102AB0002394E18871BF814537350140EF106034C0
:102AC00041BF938716001CA39387417AB6978C2346
:102AD00037350140EF10E0321C20CDFB0146930555
:102AE000100737350140EF10E02F0546930500062B
:102AF00037350140EF10002F51BFEFD26FE305478C
:102B0000A381E1882380A18837650000130505D0E3
:102B1000239FB186EF10207B6FD0CFE3828082802D
:102B20001E2103C771846379F700998FC207C1839F
:102B30001EA113B5170082808147DDBF9387C1872F
:102B4000942305476392E604EFD2EFDC238007006D
:102B5000014493848179B769000083C7B187636AB0
:102B6000F4003755000013054566EF10C0756FD0AF
:102B7000CFDDB38784008C23138509D20504EF10C1
:102B800040631374F40FD1BF82800547A380E188AE
:102B900082800947A380E18882800D47A380E18875
:102BA0008280EFD24FD783C7618831476365F704CE
:102BB00019678A071307C7CCBA979C4313846188A7
:102BC000828713858188EFF0BFF59384818811C9CE
:102BD0008547894505451CA0EFF0FFD69307401FA8
:102BE0009EA003C7318885476317F70095471CA04F
:102BF0009307401F9EA06FD04FD513858188EFF0BB
:102C00003FF29384818811C59307401F9EA0230043
:102C1000040003C7C1878547E31FF7FCEFF01FF2ED
:102C200003C79179C547E318F7FC8947C9B793846F
:102C3000818813858188EFF0BFEE55DD8D45154500
:102C4000EFF07FD09307401F9EA08D471CA065B773
:102C50009384818813858188EFF09FEC11C59307D9
:102C6000401F9EA089471CA003C7C1878547E31466
:102C7000F7F8EFF0BFEC138781790833914693574B
:102C80001500FD1793F7F70F63E3F6022C2314A04A
:102C9000EFD08FD783D70191898B91E7EFF0AFF712
:102CA000EFF04FDD89BF0545EFD04FDAD5BF37656F
:102CB00000001305C5D0EF10006135BF93848188F3
:102CC00013858188EFF0DFE5E30705F203D6E1879E
:102CD00083C501888D4613056008939715009355A9
:102CE0008600BE951376F60F93F5F50FEFF01FCA29
:102CF0009947F5BD03C7C1878547938481881385AC
:102D000081886315F702EFF0BFE1E30605EEEFF00F
:102D1000FFE2371501400546C14513050580EF0068
:102D2000704C9D471CA09307803EE9B5EFF05FDF34
:102D300095476DF9C9B59384818813858188EFF033
:102D40003FDEE30A05EAA1471CA09307401F9EA0AF
:102D500089450545EFF03FBF79BD13858188EFF0C8
:102D60003FDC9384818811C59307803E9EA09D47D8
:102D70001CA083C9C1878547E39FF9E6EFF01FDCFC
:102D80001387817918339306400213898179137769
:102D9000F707E312D7E6A5471CA09307401F9EA0A4
:102DA000EF00606F11E18949A38031898307190021
:102DB000054563C307000145EFF01F8C2DBD13854A
:102DC0008188EFF0FFD5938981881389818811C9A3
:102DD000A9471CA09307401F2390F9008D451D456E
:102DE00095BF83C7118893841188E38607E009475C
:102DF000638FE7020D476380E70405476399E700A7
:102E000089460146854513052008EFF03FB89C2010
:102E10000947FD1793F7F70F6364F700AD471CA050
:102E20009307401F2310F90023800400E9B389466B
:102E300001468145C9BF89460146854513053008CD
:102E4000E9B713858188EFF0BFCD1389818809C95F
:102E50009307803E2310F900A5471CA0EFF07F9256
:102E600003C7C1878547E318F7D8EFF03FCD9384B8
:102E700081798C309307C00F13F7C50F6312F704E5
:102E800013D5154005898589EFF01F8FA8200D8582
:102E90000589EFF0FF8CA82009850589EFF0BF8C2C
:102EA000A82005850589EFF07F8CA8200589EFF023
:102EB0005F8CA5471CA09307803E2310F90025BB1B
:102EC000EFF04FFC9D47FDB703C7C187854793844B
:102ED0008188138581886312F702EFF07FC4E30CC9
:102EE00005D0EFF0BFC5371501400546C1451305B4
:102EF0000580EF00302FA54735B5EFF07FC2E30C1A
:102F000005CEA5471CA09307803E9EA0EFF07F87CB
:102F1000DDB113858188EFF0BFC01389818809C9AD
:102F20009307803E2310F900A5471CA0EFF07F8592
:102F300003C7C1878547E310F7CC93848179EFF00D
:102F4000FFBF88300D850589EFF09F8188300985A6
:102F50000589EFF05F81883005850589EFF01F81D5
:102F600088300589EFF0FF809307803E2310F90039
:102F7000A547E9B9EFD2CF9B41112A8436852EC6E9
:102F800036C432C20296B2451246A246232AB4146F
:102F9000232CC4142320D41641016FD0AF9BEFD251
:102FA0008F97930445112A8432892EA54EA51306C6
:102FB000000481452685EFD0AF9A4A85EF10603135
:102FC0002A86CA852685EF10A01313060010231445
:102FD0000400232804002301040023130400814576
:102FE00013054401EFD0CF97A6879306C00203874D
:102FF00007001DE30387F7FF9307C0026305F7008F
:103000007E2085077EA00149A949130AC002838753
:10301000040091EB6FD06F936315D7007A200507FA
:103020007AA08507E9B72685EF10200DB377350321
:1030300033553503B337F0003E95930749008A07AF
:10304000A2970509C8C31379F90F83870400638425
:10305000470181E7FD1485045DBF8504FDB73E256A
:103060005EA583A6C1889387C188368711E723228E
:10307000D51688C3014582806305A700032747163C
:10308000F5B705458280EFD2AF8A832785152A845C
:103090000325051682979387C188984319E36FD05B
:1030A0006F8B631687000327441698C3FDB79307F9
:1030B0004716E5B7EFD2CF8703A4C1889304F00F7A
:1030C000054919E06FD00F895624B5CA1E2485071B
:1030D000C207C1831EA4FD171848639EE70238206B
:1030E00072206373C704130647000A0622965042F3
:1030F000B385C7000CC801E6050738A0F1BF058BF2
:103100000325041601CF832784158297A3000400AA
:103110003C2085073CA00324441665B7832744154B
:103120008297A3002401EDB72301040023280400A3
:1031300023140400E38196FEFD1656A4E9BF228500
:10314000EFF07FF48327C415F9D722858297E1B782
:10315000B71702409843B70600F99386F6F5136750
:10316000170098C3D84313670705D8C3D843758F92
:10317000D8C3372702401443F19A14C3144393E68B
:10318000260014C3D8431377F7F0D8C3D843D8C365
:103190008280B7160240DC42918313F7F700B7072D
:1031A000002093878702BA979C23D4423777DC02AA
:1031B00093F7F70F130707C093F606083356F70087
:1031C00099E23356F70223ACC1808280EFC25FF6EA
:1031D00037150140C145130505C0EF0010002A84D2
:1031E000EFF04FDA93742500336794001377F70FED
:1031F0009387C18109EF054798A3EF00C059376550
:103200000000130505DFEF10000C6FC0BFF4238032
:10321000070019C403A5018A9387018ACC438D292D
:1032200099C403A5818993878189CC43952137650A
:1032300000002686A2851305C5E1EF009077F1B75F
:10324000EFC21FEF3715014093050010130505C0AD
:10325000EF00A0782A84EFF0EFD293741500336763
:1032600094001377F70F9387C18101EF054798A367
:103270001D2337650000130585D6EF10C0046FC00D
:103280007FED2380070019C403A5018A9387018A73
:10329000CC43FD2E99C403A5818993878189CC43B2
:1032A000C52E376500002686A285130545D9EF0097
:1032B0005070F1B7EFC2DFE7371501400146856571
:1032C000130505C023890188EF00C0716FC09FE816
:1032D000EFC21FE663560500EFF0DFFD6FC09FE70A
:1032E00037150140054705468565130505C0238947
:1032F000E188EF00206FDDB7EFC29FE313871189EC
:103300001C239386170014A35147638CE708636856
:10331000F7009DCF3D47638DE7046FC0BFE3714762
:10332000638EE7087947E39AE7FE2388017AEFF096
:103330006FC545E537650000130585D4EF00B0780B
:1033400083C70189F9FB0547238EE180A921F1B7E5
:1033500003C721898547631AF7000545238801883B
:10336000EFF01FF7EFF0AFBB4DBF2388017A75B7C1
:1033700037150140C145130505C0EF00006601E5A2
:10338000EFF05FF359BF238E018005472388E18862
:103390002388017A03A5018A9387018ACC43CD2C27
:1033A000ADBF37150140C145130505C0EF00E06210
:1033B0008547E31AF5FCEFF0BFF185B737150140FB
:1033C000C145130505C0EF00406155FD376500009C
:1033D000130585D2EF00306F89B7238E018003A5D6
:1033E0008189938781895DBFEFC29FD483C7C181E3
:1033F00089E7EFE04FA86FC0FFD5EFE0FFEF894707
:10340000E3D9A7FE054423A08182EFE0CFC1EFE01E
:103410004FB8EFF00FA90545EFF09FEB2382017C39
:103420002386017EB71700209387872123A20700F8
:1034300080A39387817D23A2070080A36DBFEFC285
:103440003FCFEFF07FFA6FC0FFD0EFC27FCE83C7D0
:10345000C18189EBEFE02FA2EFF0DFE5EFF04FA89D
:103460006FC05FCF23A00182EFE02FB1EFE06FBE0E
:10347000EFF00FA7EFF01FE4B7170020238C072011
:103480002386017E238C017C9387417C054723A200
:10349000070098A3F1B703C521898280A38801881A
:1034A000B7170020238C07202382017C238C017C0A
:1034B0009387017B054723A2070098A38280EFC270
:1034C0003FC7EFF0BFFD6FC0FFC81C2195C75C412F
:1034D0001387170058C1184563E0E702EFC25FC5C4
:1034E0005C2581CB232205001C49014582976FC0D2
:1034F0007FC623000500CDBF828093874189984312
:103500000DCFEFC2FFC2371500201305852123A080
:103510000700EFF09FFB1385C17EEFF01FFB1385C3
:10352000417CEFF09FFA1385817DEFF01FFA138540
:10353000017BEFF09FF96FC0FFC18280EFC2BFBD7A
:103540004111B714014005449307001091494C0004
:10355000138504C03EC24EC622C4092E41494C0008
:10356000138504C04AC24EC622C4092685674C0092
:10357000138504C03EC24AC622C4CD2C01468565CF
:10358000138504C08521B71700201D67B7360000DA
:1035900093878721130707539386C61C98C794CB3C
:1035A00023800700238607009387417C98C737371D
:1035B00000001307072498CB238007002386070009
:1035C000379704009387817D1307073E98C73737E5
:1035D00000001307E74B98CB2380070023860700E2
:1035E0009387C17E1307007D98C737370000130704
:1035F000E74398CB1387017B9306803E14C7B73609
:1036000000009386862F238607002300070040A72B
:1036100014CB23A2070080A341016FC01FB3EFC2E8
:103620003FB1EFE00F98EFE04F8C154723A0E18208
:103630006FC05FB2EFC2DFAFEFF03FE1EFE06FA22C
:10364000EFE06F8E194723A0E1826FC0BFB0EFC2D9
:103650003FAEEFF09FDFEFE0CF97214723A0E1825D
:103660006FC05FAFEFC2DFACEFE0AF93EFE02F844E
:103670000D4723A0E1826FC0FFADEFC27FABEFE04B
:103680004F92EFE0CF82114723A0E1826FC09FAC41
:10369000EFC21FAA9387018CB8234111135605016D
:1036A0002AC41376F60F6365E6028084B0A380A374
:1036B00091C5CCC3014532C28295124637650000E0
:1036C000A285130585E7EF00D02E41016FC09FA8AA
:1036D00037650000BA85130585EBF5B723000600B2
:1036E000A301060008B22CA254C282801D4723A069
:1036F000E1828280EFC2DFA381461386018C81457F
:103700000145EFF0BFFDB73600009386466613868D
:10371000018A8D450545EFF07FFCB73600009386A2
:10372000A667138681898D450945EFF03FFBB736C3
:1037300000009386E6611386818B85450D45EFF089
:10374000FFF9B7360000938646631386018B9145D7
:103750001145EFF0BFF8B73600009386E664138694
:10376000818A89451545EFF07FF76FC0BF9EEFC294
:103770003F9CEFD01FFFEFE0CF8EEFE0EF83EFF045
:103780009FD123A0A1829387018C23A0070023A2AD
:1037900007006FC03F9C83A701820547F517636848
:1037A000F700EFC2FF98EFF09FFC6FC0BF9A8280D6
:1037B00083A7018205476375F7001547639CE700FF
:1037C000EFC21F97EFF0BFFAEFE0AF8AEFD0DFFE56
:1037D0006FC05F98828001A097D1FF1F9381012461
:1037E0001721002013010182173500001305C58A37
:1037F00097D5FF1F938505811386018463FAC50061
:103800008322050023A0550011059105E3EAC5FEBA
:103810001385018497E5FF1F9385C5A16377B500E4
:10382000232005001105E36DB5FEFD42739002BC37
:103830008D4273904280930280087390023097C249
:10384000FFFF9382627C93E2320073905230EFF07C
:103850003F9097E2FFFF9382E2237390123473004C
:103860002030B7F7FF1F03A54770828098459377F4
:1038700007011378F70081C7DC413368F8009441F1
:10388000814713F6F60F39C21C410146854E3D4F64
:10389000930F800293028004214EB398CE00B3F5BB
:1038A00016016391B80213132600B3156F0093C578
:1038B000F5FFED8F33136800B367F3006317F70D5F
:1038C000232A15010506E31AC6FD1CC1416613062D
:1038D00006F0758E3DC23716014093050680631BC6
:1038E000B50A83A74182A145854E3D4F930F8002C3
:1038F00093028004414E3393BE0033F66600631298
:10390000C302139625000116B318CF0093C8F8FF21
:10391000B3F7F8003316C800D18F6319F709232ACB
:1039200065008505E399C5FD371601405CC1930527
:1039300006806312B50823A2F182C16763E6F6042C
:10394000504D8147054E3D4F930F800293028004F6
:10395000A14E93850701B315BE00B3F8B60063917D
:1039600015039398270033131F011343F3FF337696
:10397000C300B318180133E6C800631AF7054CC931
:103980008507E398D7FD50CD8280E31D57F22328A9
:1039900015010DBF930506C06315B50083A781828D
:1039A00099B7E312C5F483A7C18235BFE31B57F66D
:1039B00023286500BDB7930506C06315B50023A491
:1039C000F182A5BFE31BC5F623A6F182BDB7E319BB
:1039D00057FAB315FE000CD165B708456D8D333528
:1039E000A000828001CA93970501C1831CC9C181CF
:1039F0000CD182804CC98280B708014083A748005F
:103A000013570501931605013706300013134500BF
:103A10003D8BC1823378C500635003066313C8022F
:103A200003A64800370700F17D17F98F718F23A295
:103A3000E8009DC14581137505073395A600C98F20
:103A400021A813169500635D06003787FCFF7D17DC
:103A5000F98F99C1BE06D58F370701405CC38280BC
:103A6000370620006313C80041071D463317E600E0
:103A70001347F7FFF98F75BF6315C80041070D465F
:103A8000F5B71316B500E34C06FE1357150113776F
:103A900007073397E600E9BFEFC28FE90111AA8457
:103AA000422108082EC6A52CE24737470F0013070E
:103AB000072433D7E70242044180137404FC420414
:103AC0004180B245E1669386066A598C4204418082
:103AD000C2A09A2042074183799B420741839AA062
:103AE000984163E4E604060733D7E7029146BA87B4
:103AF000420741836373D7009147C207C183DEAC9D
:103B00009E20DA21B62593E717009EA09E20558FB0
:103B1000C207C18393F757BFD98F9EA09A25DE2590
:103B2000D98F9EA405616FC0EFE2F221B166FD1648
:103B30006311D6028D463307D702B3D7E702C20717
:103B4000C1831397470119E393E717002167D98FC2
:103B50007DB7E5463307D702B3D7E7021167C2073F
:103B6000C183D98FF9BF1E2189C593E717001EA114
:103B70008280C207C183F99BC207C183CDBF1E21CA
:103B800089C593E707101EA18280C207C18393F7FE
:103B9000F7EFC207C183C5BF1E2189C593E7072080
:103BA0001EA18280C207C18393F7F7DFC207C183DA
:103BB000C5BF1E2189C593E707401EA18280C207A9
:103BC000C18393F7F7BFC207C183C5BF5E2101C69A
:103BD000DD8D4EA1828093C5F5FFFD8DDDBF0EA961
:103BE00082800A291375F50F828093F7E50F19C2B9
:103BF00093E71500C207C1831EA98280411102C646
:103C00002AC6B247BE952EC6B2478A23410182809A
:103C10001A219385058089E9856793870780D98F65
:103C2000C207C1831EA18280FD779387F77FF98F3A
:103C3000D5BF411102C402C693D7C5012AC63EC4EE
:103C4000A247A205A18199CBB247D1073EC6B24790
:103C5000884341016D8D3335A0008280B247C18118
:103C6000E107EDB75E215A29C2076D8FC18309CBE9
:103C700013D505017D8D137505703335A000828045
:103C80000145828093C5F5FFC205C1814EA982809E
:103C9000B737004088C38280B7370040C8C38280EE
:103CA000B737004088C78280AD67373700409387B9
:103CB000A7AA1CC38280B567373700409387C7CC5B
:103CC0001CC3828023A4A18C828003A7818C85479A
:103CD00014216310F7021C31639CE7023C21960714
:103CE00093E707F837E700E093F7F70F36972300DD
:103CF000F740054793D756003317D700544189CE74
:103D0000938707048A07B7E600E0B69798C38280D6
:103D1000EDF33C219607F9B793870706E5B7B77728
:103D2000DC02938707C01CC137160240584211833A
:103D30009376F7003707002013078703369714237D
:103D4000504293F6F60F1376060833D7D70019E2E0
:103D500033D7D70258C118C558C5828099C53717BF
:103D600002401C4F5D8D08CF8280B7170240984FEC
:103D70001345F5FF798D88CF828099C537170240AA
:103D80005C4F5D8D48CF8280B7170240D84F1345F6
:103D9000F5FF798DC8CF82801A218D67938707043C
:103DA000B6217D8F9E21D58FD621D58FF621D58F37
:103DB0009625D58FB625D58FD625D58FF625D58FC7
:103DC000D98F1EA19E291EA982801E2189C593E735
:103DD00007041EA18280C207C18393F7F7FBC207C5
:103DE000C183C5BF85479181B395B7005E21C205E8
:103DF000C18101C6DD8D4EA1828093C5F5FFFD8D89
:103E0000DDBF4EA582804A2582805E2189C593E769
:103E100047005EA18280C207C183ED9BC207C183B8
:103E2000CDBF5E21162513F7F50005453317E500D4
:103E3000C207758FC18301CB91813315B5007D8D8C
:103E40003335A0008280014582801E213737014032
:103E5000130707C0C207C1836306E50037070040A8
:103E60006316E500BA2193F7F7F8D98FFA2193F793
:103E7000F7CFC207C183D98F1EA1DE215EB59E2177
:103E80001EB5B7370140938707C06306F500B70733
:103E900000406314F5009C251EB985475EA9828009
:103EA0001E2189C593E717001EA18280C207C18326
:103EB000F99BC207C183CDBF5E2501C6DD8D4EA52E
:103EC000828093C5F5FFFD8DDDBF1E294A25ED8F4C
:103ED0004205418189C76D8D3335A000828001453F
:103EE000828093C5F5FFC205C1810EA98280EFC211
:103EF0002FA41629F577FD17F58FF621DA25011184
:103F0000D58F1EA95625FD779387379FF58FD6212C
:103F10002A842EC6D58F9625D58FB625D58F5EA53A
:103F20005E29C207C18393F7F7CFD98F5EA908082E
:103F3000EFF0FFDEB747014093870780B245631E6D
:103F4000F402F2476547B387E702984193064006BB
:103F50000A07B3D7E70233D7D702B3F7D70212075E
:103F6000920793872703B3D7D702BD8BD98FC20798
:103F7000C1831EA405616FC0EF9DE247E1B791C503
:103F80005E250967D98F5EA582805A25F977FD17CE
:103F9000F98FD5BF93F5F51F4EA182800A216D8D53
:103FA0003335A000828083A7818137177A001307F9
:103FB0000720B3D7E70293F7F70F2387F18C130796
:103FC000803EB387E7022396F18C8280B7F700E04A
:103FD000D8438146799BD8C303C7E18C3306A70237
:103FE00090CBD4CB98431367070198C398431367CA
:103FF000170298C3D843058B75DF9843799B98C304
:104000008280B7F700E0D8438146799BD8C303D7B5
:10401000C18C3306A70290CBD4CB9843136707011A
:1040200098C398431367170298C3D843058B75DF6D
:104030009843799B98C38280EFC28F8F2A84116541
:10404000011185452105EFF07FD1930700403EC265
:104050003715014085473EC44C00E147130505C0B4
:104060003EC6EFF0BF8022C837440140B7070800C2
:104070000C08130504803ECC02CA231E0100EFF099
:104080001FE7854513050480EFF07FEF05616FC0E2
:104090006F8CEFC24F88B7440140AE89328901442A
:1040A00093840480634524014A856FC00F8A930579
:1040B00000042685EFF09FEE7DD9B38789008385C4
:1040C000070026850504C205C181EFF0BFECD9BF0A
:1040D000138701831C43B7160020938606233E9561
:1040E000636BD500B74600209386060063E5A60003
:1040F00008C33E858280FD57EDBF2946814539AE14
:10410000B3C7A5008D8B3307C50081E78D4763EDED
:10411000C700AA87637EE508942185078505A38FDC
:10412000D7FEE3EBE7FE828093763500AA8789CA43
:10413000942185078505A38FD7FE93F63700C5BF69
:104140009376C7FF138606FE63F0C70683A30500B8
:1041500083A2450083AF850003AFC50083AE050190
:1041600003AE450103A3850183A8C50193854502DC
:1041700023A0770003A8C5FF23A2570023A4F701BB
:1041800023A6E70123A8D70123AAC70123AC670010
:1041900023AE17019387470223AE07FF75B79041FF
:1041A0009107910523AEC7FEE3EBD7FEE3E6E7F602
:1041B000828039713EDA2ED232D436D63AD842DCF9
:1041C00046DE9387418322CC804326CA06CEAA844A
:1041D00009C41C4C99E322859D250C445410268665
:1041E000228536C6EF00902DF2406244D244216110
:1041F0008280011126CA4AC806CE22CC4EC652C4BD
:10420000AA842E8901C51C4D91E3152D9C4C804438
:1042100099E326852D25972700009387E7CE631B1A
:10422000F402C0405E24A18BB1C71C48A1C7FD5950
:10423000294A1C4483450900FD17B1E91CC463DD0C
:1042400007062286A9452685CD2AFD576308F50273
:10425000294535A097270000938707CD6314F40004
:104260008044C9B797270000938707C8E31CF4FA76
:10427000C0444DBFA2852685BD2C55D97D55F24041
:104280006244D2444249B249224A056182801CC438
:10429000050963D70700184C63CAE7006388450126
:1042A0001C401387170018C08CA361B7228626858F
:1042B0006922E31035F9D9B71C401387170018C0DD
:1042C000294798A371B793874183AA8588436FF0E4
:1042D0005FF2AA87850703C7F7FF6DFF3385A74005
:1042E0007D15828079714AD04ECE06D622D426D250
:1042F000AA892E899304190003C4F4FF3A8536C6AF
:1043000032C42EC23AC07D2522951C310247924507
:10431000A18B2246B246D1E39307D0026311F40881
:104320009C20054393042900E5C641476390E602BB
:1043300013070003639CE7009C201307800593F795
:10434000F70D6392E70C9C30C1468904B7080080E2
:104350006314030093C8F8FF33FFD80201480145F6
:10436000A54FE54EFD5233DED802138707FD63E308
:10437000EF04BA8763DED704630D58007D58636A83
:10438000AE006314AE006346FF0005483385A60205
:104390003E95850483C7F4FFC9BF2689A1BF930753
:1043A000B0026305F400A2870143BDBF9C209304C3
:1043B0002900DDBF1387F7FB63E5EE00938797FCC9
:1043C00055BF1387F7F963E5EE00938797FA5DB75A
:1043D000FD57631FF8009307200223A0F9004685CC
:1043E00019EEB250225492540259F249456182802A
:1043F000630403003305A0406DD663040800938571
:10440000F4FF0CC2F9BF93070003A9F2A1463DBF18
:1044100013070003E382E7F2A9460DBF93874183A8
:104420009C43B286985309E717C7FF1F130707C8B5
:104430002E86AA853E856FF0FFEA011122CC26CA9E
:104440004AC806CE4EC6AA842E89328401C51C4DA8
:1044500091E3F52697270000938707AB6317F406CF
:10446000C0401C4C1CC45E24A18BC1C31C48B5CFEA
:104470001C4808409379F90F1379F90F1D8D5C489A
:104480006346F500A2852685692C25E51C440505B3
:10449000FD171CC41C401387170018C02380370168
:1044A0005C486388A7005E24858B81CBA94763168F
:1044B000F900A2852685B5240DEDF24062444A85B7
:1044C000D2444249B2490561828097270000938710
:1044D000A7A56314F400804469B797270000938769
:1044E000A7A0E310F4F8C044ADBFA2852685212023
:1044F00041D17D59D9B741119387418326C2844365
:1045000022C44AC006C62A892E8489C49C4C99E3D9
:1045100026853526972700009387079F631BF402A3
:10452000C0400317C40093170701C18393F68700A7
:10453000ADEA93F6070195EEA5472320F90013672E
:1045400007045AA47D55B2402244924402494101D5
:104550008280972700009387279D6314F40080448E
:10456000C9B79727000093872798E31CF4FAC04443
:104570004DBF918B9DC34C5889C9930744046384F4
:10458000F5004A85892B232A04025E242322040095
:1045900093F7B7FD5EA41C481CC05E2493E7870018
:1045A0005EA41C4899EB5E241307002093F70728AC
:1045B0006385E700A2854A85A9295E2413F71700C1
:1045C0001DC35C4823240400B307F0401CCC1C48E6
:1045D0000145B5FB8317C40013F707082DD793E7F0
:1045E00007045EA485B7898B014791E3584818C436
:1045F000F9BFDE25011122CC26CA06CE4AC84EC616
:1046000013F78700AA842E8479EBD841634DE0002C
:10461000B841634AE0000145F2406244D244424955
:10462000B2490561828058547DD703A9040093964E
:10463000370123A0040063DB060670485E24918BDB
:1046400099C75C401D8E5C5899C33C401D8E5C54DC
:104650000C50814626858297FD575A24631DF5002C
:104660009440F54763E8D706B70740208507B3D7DE
:10467000D700858BA5C31C48232204001CC09317B8
:10468000370163D80700FD576314F5009C4091E3A0
:1046900068C84C5823A02401BDDD930744046384FB
:1046A000F50026850D29232A0402B5B70C500146D2
:1046B000854626850297FD572A86E311F5F89C402A
:1046C000B5DF75476385E70059476393E70423A087
:1046D000240191B7136707045AA47D5535BF83A9F8
:1046E0000501E38A09F203A905008D8B23A035019A
:1046F00033093941014791E3D84918C4E35D20F1FA
:104700001C540C50CA864E86268582976347A000AB
:104710005E2493E707045EA4C9B7AA993309A940A8
:10472000F1BF9C49A5C3011122CC06CE2A8411C534
:104730001C4D81E72EC62122B245971700009387B2
:10474000A77C639CF5004C408397C5009DC72285DC
:104750006244F24005616FF0DFE99717000093872C
:10476000A77C6394F5000C44C5B7971700009387A6
:10477000A777E39BF5FC4C44C1BFF240624401457E
:104780000561828001458280411122C406C62A84C7
:104790004EA572A523200500232205002324050031
:1047A0002322050623280500232A0500232C0500C3
:1047B000214681451305C505EFB09F9A9717000064
:1047C000938787B65CD0971700009387A7B81CD44F
:1047D00097170000938787BC5CD4971700009387D6
:1047E000E7BE00D01CD8B240224441018280970528
:1047F0000000938545F391AA411126C21306800655
:104800009384F5FFB384C4024AC02E8922C406C62D
:1048100093854407AD262A8401CD23200500232259
:104820002501310508C4138684068145EFB05F93E6
:104830002285B240224492440249410182801C4DAB
:10484000A5E7411106C622C497070000938767FABF
:104850001CD5938781839C432324050423260504C8
:10486000232805046314F50085471CCD2A843528C8
:1048700048C022851D2808C42285052848C4484010
:1048800001469145EFF05FF008440546A545EFF07D
:10489000BFEF48440946C945EFF01FEF85471CCCE0
:1048A000B2402244410182808280411193878183FA
:1048B00026C284434AC006C69C4C22C42A8981E78A
:1048C0002685EFF0DFF7938484048044DC40FD17F5
:1048D00063D607009C40B9CF8440C5BF0317C4000E
:1048E00039E7C17785072322040623200400232209
:1048F0000400232404005CC423280400232A0400A9
:10490000232C0400214681451305C405EFB05F85C3
:10491000232A0402232C040223240404232604044F
:104920002285B2402244924402494101828013040C
:10493000840671BF91454A85EFF01FEC88C049FDA0
:10494000B1472320F9000144E1BF797122D44AD054
:1049500052CC56CA5AC85EC606D626D24ECE2A8A2F
:10496000AE8A130485040149054BFD5B09ECB25086
:1049700022544A8592540259F249624AD24A424B21
:10498000B24B45618280044483294400FD1963D4FD
:1049900009000040E1BFDE24637BFB008397E40055
:1049A00063877701A6855285829A3369A90093842B
:1049B0008406E9BF0325C50E82801971A6DAAE848C
:1049C0008395E500A2DC86DE328463DB0500DE240D
:1049D00023A0060093F7070885E7930700401DA072
:1049E000300836C6EF00F026B246E34205FE7247B5
:1049F000BD67F98F7977BA9793B717009CC2F1BF5B
:104A0000930700041CC0F6506654D6540145096152
:104A10008280DE25011122CC06CE26CA4AC8898BA7
:104A20002E8489CF930774041CC01CC885475CC8BA
:104A3000F2406244D24442490561828074003000F1
:104A4000AA84EFF09FF7A2452A8926850D2A19E945
:104A50008317C40013F7072061FFF19B93E727003A
:104A60005EA4C9B7970700009387A7D89CD45E249B
:104A700008C008C893E707085EA4A2475CC8B2470D
:104A800081CF8315E4002685EF00D01F11C55E2479
:104A9000F19B93E717005EA45E243369F9002316A7
:104AA000240179B791ED41116C00014501CA795596
:104AB00091C61C229CC108223335A000410182808E
:104AC000014509CA795599C61C229CC10822333573
:104AD000A00082808280DDC183A7C5FF411122C46E
:104AE00006C626C21384C5FF63D307003E94AA847A
:104AF000EF0010219387018D9C4381EF2322040056
:104B000023A8818C2244B2402685924441016F0043
:104B1000501F637EF40014403307D4006396E7000F
:104B20009843DC43369718C05CC0D9BFBA87D843D6
:104B300019C3E37DE4FE94433386D700631F8600E8
:104B40001040B29694C33386D700E31DC7FA1043D2
:104B50005843B29694C3D8C375B76375C400B147C0
:104B60009CC04DB71040B306C4006316D700144371
:104B70005843B29614C058C0C0C369B782800111AF
:104B800026CA93843500F19806CE22CC4AC84EC678
:104B9000A104B14763F3F404B14463E2B4042A8985
:104BA000EF0010169387018D98433A8439E093877C
:104BB000418D9C4391E781454A85252F23AAA18CED
:104BC000A6854A853D27FD5963193507B14723203E
:104BD000F9004A85EF00F01229A0E3D004FCB147A8
:104BE0001CC10145F2406244D2444249B2490561C8
:104BF00082801C40858F63CF0702AD4663F6F600C6
:104C00001CC03E9404C031A05C406313870223A8FB
:104C1000F18C4A85EF00F00E1305B40093074400B1
:104C200061993307F5405DDF3A94898F1CC05DBF01
:104C30005CC3C5B72287404095BF13043500719807
:104C4000E30285FCB305A4404A856525E31C35FBDA
:104C5000B5BF1C46FD171CC663DA0700184E63C5B6
:104C6000E700A9476394F5006FF02FFD1C422E85E5
:104C70001387170018C28CA38280011122CC26CA88
:104C80004AC84EC652C406CE2A89AE893284B304BD
:104C9000D6007D5A63149400014509A80C204E8665
:104CA0004A85EFF01FFB0504E31645FFF24062441E
:104CB000D2444249B249224A05618280357122CDEF
:104CC00026CB4AC94EC706CF52C556C35AC1DEDEEF
:104CD000E2DCE6DAAA89AE843289368409C51C4D45
:104CE00099E3EFF0DFB5971700009387E72163980A
:104CF000F40C83A44900DE24A18BE5C79C48F5C3CE
:104D000093070002A304F1029307000302D22305D4
:104D1000F10222C6930B5002971A0000938ACA230D
:104D2000054C294B4A841C2099C3639F770DB30C13
:104D30002441638E0C00E6864A86A6854E85EFF0F8
:104D4000DFF3FD57630FF51C9256E69636D21C2012
:104D50006389071CFD571309140002C802CE3ECA1E
:104D600002CCA309010482D4834509001546568567
:104D7000A52F13041900C24751E913F7070109C70A
:104D800013070002A309E10413F7870009C71307FB
:104D9000B002A309E104834609001307A002638F50
:104DA000E606F2474A8481462546182093051400FA
:104DB000130707FD6377E60AB5CA3ECE85A89717A5
:104DC0000000938767166395F40083A4890025B7D4
:104DD0009717000093874711E39FF4F083A4C9005D
:104DE00019BFA6854E85EFF00FF119D97D55FA4010
:104DF0006A44DA444A49BA492A4A9A4A0A4BF65B53
:104E0000665CD65C0D618280050431BF3305554177
:104E10003315AC00C98F3EC82289B9B73247930613
:104E20004700184336C6634707023ACE1820930757
:104E3000E002631DF70418309307A002631BF7021A
:104E4000B2470904138747009C433AC663C107026F
:104E50003ECA2DA83307E04093E727003ACE3EC86C
:104E6000F1B7B387670385462E84BA973DBFFD57D8
:104E7000C5B7050402CA8146814725461820930517
:104E80001400130707FD6374E606F9F20C200D46C3
:104E9000171500001305C50C812D11CD97170000C3
:104EA0009387070C1D8D93070004B397A700424515
:104EB00005045D8D2AC80C2019461715000013053E
:104EC000650A130914002304B102392D35C197B7BF
:104ED000FFFF9387271395E74247B24713770710E1
:104EE00009CF91073EC69257D2973ED225BDB387D0
:104EF000670385462E84BA9751B79D07E19BA107AA
:104F0000D5B7780097060000938666D726860C08EA
:104F10004E8597000000E7000000FD572A8AE31441
:104F2000F5FCDE2493F70704E39207EC1255C1B5B4
:104F3000780097060000938686D426860C084E8556
:104F4000012AE1BF797156CA9C49BA8A984522D490
:104F500026D24ECE52CC06D64AD05AC85EC6AA89B0
:104F60002E84B284368A63D3E700BA879CC0034795
:104F7000340419C385079CC01C4093F7070281C7FE
:104F80009C4089079CC00329040013796900631AB7
:104F90000900130B9401FD5B5C449840998F634CAE
:104FA000F9041C408346340493F70702B336D0005B
:104FB000A5EB13063404D2854E85829AFD57630310
:104FC000F5041C4011469840998B544481446397E2
:104FD000C700B384E64063D3040081441C441848EE
:104FE0006354F700998FBE94014969047D5B63980F
:104FF0002405014509A885465A86D2854E85829AA0
:10500000631E75017D55B250225492540259F249E3
:10501000624AD24A424BB24B456182800509ADBF1C
:105020003307D40013060003A301C7040347540445
:1050300093871600A2978906A381E7049DBF854642
:105040002286D2854E85829AE30E65FB050945B717
:10505000797122D426D24AD04ECE06D652CC56CA28
:105060005AC8B689942D930790063289AA842E8453
:1050700013863504638DF60263E2D7069307800535
:105080006386F61863EDD700638E0620930730041D
:10509000638EF60A930A24042301D404C9A093075B
:1050A00030066385F60A93074006E395F6FE1C403A
:1050B000084393F6070893054500C5C61C410CC379
:1050C00063D807001307D002B307F040A301E4043C
:1050D00097160000938686E9294765A8930700077D
:1050E0006382F61663E5D7029307E0066389F61834
:1050F0009307F006E390F6FA0C401C4313F80508FA
:10510000138547006307080608C39C4385A89307D7
:105110005007E383F6FE930780076389F61293072F
:105120003007E399F6F61C43D0418145938647004A
:1051300014C383AA07005685452E01C53305554182
:1051400048C05C401CC8A301040461A81C43930A26
:105150002404938647009C4314C32301F404854729
:10516000D5B793F607041C410CC3B9DAC207C1874F
:1051700081BF93F5050408C3C9D99E231307F00620
:105180006387E60E97160000938646DE2947A30143
:1051900004044C400CC463C5050008406D9908C068
:1051A00099E3B28A89CDB28AB3F5E702FD1AB695C2
:1051B0008C212380BA00B3D5E70263F0E70CA14746
:1051C000631EF7001C40858B91CB58401C4863C779
:1051D000E70093070003A38FFAFEFD1A330656413A
:1051E00010C84E87CA867000A2852685EFF09FD52D
:1051F0007D5A631D450B7D55B2502254925402597D
:10520000F249624AD24A424B45618280A382D50468
:1052100097160000938686D50C40084313F80508BE
:105220001C411105630D080208C313F7150001C7DF
:1052300093E505020CC04147B9FB0C4093F5F5FD21
:105240000CC0B1B79C4193E707029CC1930780074C
:10525000A302F40497160000938686D275BF13F854
:10526000050408C3E30308FCC207C1837DBF97168A
:1052700000009386A6CF214719BFAE8735B794416A
:105280001C43CC4913F80608138547006306080041
:1052900008C39C438CC339A008C393F606049C43FF
:1052A000F5DA8EA323280400B28A25BF1448568657
:1052B000CA8526858299E30045F51C40898B8DE7D8
:1052C000B2474844E35AF5F23E853DB785465686D7
:1052D000CA8526858299E30065F3050A5C44324756
:1052E000998FE345FAFEE9BF014A930A94017D5B79
:1052F000F5B7411122C42A842E8597C7FF1F23A921
:1053000007F206C6EFE0DFDCFD576319F50097C72B
:10531000FF1F9387E7F19C4391C31CC0B240224416
:1053200041018280411122C42E848395E50006C686
:10533000D12A634905007C48AA977CC8B240224420
:10534000410182805E247D777D17F98F5EA4FDB7D1
:10535000DE25011122CC26CA4AC84EC606CE93F7D6
:105360000710AA842E843289B68991C78395E500F7
:105370008946014681225E247D777D17F98F5EA4E0
:105380008315E4006244F240CE864A86B24942491F
:105390002685D244056199A8411122C42E848395A3
:1053A000E50006C6012AFD575A24631AF500FD7769
:1053B000FD17F98F5EA4B2402244410182808567C7
:1053C000D98F5EA468C8C5BF8395E50099A889CD2B
:1053D0009307F00F63F7C7009307A0081CC17D5522
:1053E000828090A10545828001458280411122C4BE
:1053F0002A842E85B285368697C7FF1F23AA07E227
:1054000006C6EFE01FC9FD576319F50097C7FF1FD8
:10541000938707E29C4391C31CC0B24022444101E0
:105420008280411122C42A842E8597C7FF1F23A1A1
:1054300007E006C61122FD576319F50097C7FF1F45
:10544000938707DF9C4391C31CC0B24022444101B3
:105450008280411122C42A842E85B28597C7FF1FFE
:1054600023A807DC06C6CD20FD576319F50097C7B2
:10547000FF1F9387E7DB9C4391C31CC0B2402244CB
:1054800041018280411122C42A842E8597C7FF1FC3
:1054900023A007DA06C6C920FD576319F50097C790
:1054A000FF1F9387E7D89C4391C31CC0B24022449E
:1054B00041018280411122C42A842E85B28536861C
:1054C00097C7FF1F23A607D606C67928FD5763197D
:1054D000F50097C7FF1F9387A7D59C4391C31CC0B6
:1054E000B24022444101828093F5F50F2A9663145D
:1054F000C500014582801C21E38EB7FE0505C5BFAE
:1055000082808280411122C42A842E85B28536860B
:1055100097C7FF1F23AE07D006C6B928FD576319EA
:10552000F50097C7FF1F9387A7D09C4391C31CC06A
:10553000B2402244410182809307800517C7FF1FB4
:105540002328F7CE7D5582809307800517C7FF1F5C
:105550002320F7CE7D5582809307800517C7FF1F54
:105560002328F7CC014582809307800517C7FF1FCA
:105570002320F7CC7D5582809307800517C7FF1F36
:105580002328F7CA7D558280EE0B0000360C000000
:105590004C0C0000020C0000020C0000020C000089
:1055A000780C0000020C0000020C0000780C0000D7
:1055B000720C0000CE0C0000140D0000580D00000D
:1055C000020C00006E0D0000020C0000020C000036
:1055D000A80D0000020C0000020C0000020C0000EC
:1055E000020C0000020C0000020C0000020C000083
:1055F000020C0000020C0000020C0000020C000073
:10560000020C0000960C0000B00C0000000E000020
:10561000C80E0000AE0E00007A1000007A100000E4
:10562000A00F00007A100000CC0F00007A100000DC
:105630007A100000241000005A0E0000E60F00004F
:105640007A1000002E1000006A100000F80F000011
:105650001010000070646F5F696E64657820657279
:10566000726F72210D000000526571756573743A96
:105670000D0A43757272656E743A2564206D410D92
:105680000A566F6C746167653A2564206D560D0A81
:1056900000000000434325642053524320436F6EB3
:1056A0006E6563742025640D0A0000004343256481
:1056B0002053524320436F6E6E6563740D0A0000E1
:1056C000434325642053494E4B20436F6E6E656300
:1056D000740D0A00446973636F6E6E6563740D0028
:1056E00053656E6420536F7572636520436170204B
:1056F0005375636365737366756C6C790D00000098
:105700004163636570740D00505320726561647964
:105710000D0000005343383732362054696D652040
:105720004F7574202050440D0000000050444F3A43
:1057300025640D0A43757272656E743A2564206D96
:10574000410D0A566F6C746167653A2564206D5689
:105750000D0A000048616E646C65205265717565C4
:105760007374202025640D0A00000000202052657B
:1057700071756573743A0D0A202050444F5F496477
:10578000783A25640D0A0000202043757272656E18
:10579000743A2564206D410D0A000000537563635F
:1057A0006573730D00000000556E737570706F7235
:1057B00074656420436F6D6D616E640D00000000C0
:1057C00049465F52585F52455345540D0000000052
:1057D00050442056616C766520436F6E6E6563742D
:1057E0000D00000050442056616C766520546573AE
:1057F000742053656E640D00737472756374206257
:105800007574746F6E206973206E756C6C21000066
:10581000627574746F6E2063726561746520737550
:1058200063636573732100005A1300006213000064
:105830005E1300005E1300005E1300005A130000A8
:105840006613000066130000AC1300009213000002
:10585000961300009E1300009E1300009A13000090
:105860009E130000A2130000AA1300006B65795F6D
:105870006F6E5F62746E00006B65795F6F66665F66
:1058800062746E0077617465725F6C65616B5F62F4
:10589000746E000077617465725F6C6F73745F6221
:1058A000746E00006B65795F6F66665F636C696339
:1058B0006B5F68616E646C650D0000006B65795FFD
:1058C0006F6E5F636C69636B5F68616E646C650DBE
:1058D0000000000077617465725F6C65616B5F64E6
:1058E0006F776E5F63616C6C6261636B0D000000CB
:1058F00077617465725F6C65616B5F75705F636122
:105900006C6C6261636B0D0077617465725F6C6FC4
:1059100073745F75705F63616C6C6261636B0D00C3
:1059200077617465725F6C6F73745F646F776E5FBD
:1059300063616C6C6261636B0D0000003230302C6F
:10594000312C00003230302C3230302C3230302CC0
:105950003230302C3230302C3230302C3230302C4F
:105960003230302C3230302C3230302C3230302C3F
:1059700031303030302C000035302C35302C353083
:105980002C35302C35302C35302C35302C35302C16
:1059900035302C35302C35302C35302C35302C35FD
:1059A000302C35302C35302C35302C35302C3530F2
:1059B0002C353020202020202020202020202020B6
:1059C0002020202020202020202020202020202CCB
:1059D00035302C35302C35302C35302C35302C35BD
:1059E000302C35302C35302C35302C35302C3530B2
:1059F0002C35302C35302C35302C35302C35302CA6
:105A000035302C35302C35302C323030302C0000F5
:105A10003230302C3230302C000000003230302C4C
:105A2000302C00003230302C3230302C3230302CE0
:105A30003230302C3230302C353030302C000000F9
:105A400053797374656D436C6B3A25640D0A0000DD
:105A50004368697049443A253038780D0A000000DF
:105A600056322E302E310D00901E0000C61E000052
:105A7000041F00005E1F0000F81E0000F81E00005A
:105A8000F81E0000F81E0000F81E0000F81E0000BE
:105A9000381F00004A1F00000E21000028210000CE
:105AA0004E2100009C210000C6210000FC210000C6
:105AB0004932435F49545F41460D0000756E6B6E7D
:105AC0006F776E20693263206576656E74200D00F5
:105AD000737231202578200A7372322025782020B5
